:100000000C9433000C9400000C9400000C9400003D
:100010000C9400000C9400000C9400000C94000060
:100020000C9400000C9400000C9400000C94000050
:100030000C9400000C9486000C9400000C940000BA
:100040000C9400000C9400000C9400000C94000030
:100050000C9400001027E80364000A00010000105F
:10006000000110000100F894EE27ECBBF1E0FBBFAB
:10007000EBBFE5BF8DE0A2E0BB27ED938A95E9F7E2
:1000800080E098E0A0E6ED930197E9F7EFE5EDBF9A
:10009000E8E0EEBFC0E6D2E00C94EC00E52DF0E025
:1000A000EA36A0E0FA0751F4ECB7EF3E28F4ECB7DB
:1000B000EF5EECBFECB727C0ECB725C0E936A0E097
:1000C000FA0751F4ECB7E13128F0ECB7E151ECBF9D
:1000D000ECB719C0ECB717C0EC36A0E0FA0741F452
:1000E000E3B5EF3E20F4E3B5EF5EE3BD0BC00AC01D
:1000F000EB36A0E0FA0749F4E3B5E13118F0E3B5D7
:10010000E151E3BDE3B5F0E0089508950A921A9233
:10011000FA926A937A938A939A93AA93BA93EA93F8
:10012000FA93EFB7EA935CB0E52DF0E0EA37A0E090
:10013000FA0721F4E0E0ECBFE3BD40C0EA36A0E0FE
:10014000FA0719F4ABDFECBF39C0E936A0E0FA07D3
:1001500019F4A4DFECBF32C0EB36A0E0FA0719F4C3
:100160009DDFE3BD2BC0EC36A0E0FA0719F496DF63
:10017000E3BD24C0E136A0E0FA0711F4EFEF1DC0A3
:10018000E236A0E0FA07C1F0E336A0E0FA07A1F0FA
:10019000E436A0E0FA0781F0E536A0E0FA0761F066
:1001A000E636A0E0FA0741F0E736A0E0FA0721F0D2
:1001B000E836A0E0FA0711F4E0E0EBBBE991EFBF0D
:1001C000F991E991B991A99199918991799169915F
:1001D000F990199009901895E8EDEAB9E6E8E0BDC4
:1001E000E7E4E9B9E8E0E7BBE0E8E1BBEFEFEABB51
:1001F000EDE6E3BFEFE6E5BD7894FFCFFFCFFFFF6D
:00000001FF
