:060000000C9438000C9482
:10000600FF000C9400000C9400000C9400000C946B
:1000160000000C9400000C9400000C9400000C945A
:1000260000000C9400000C9400000C9400000C944A
:100036008B000C9400000C9400000C9400000C94AF
:1000460000000C9400000C9400000C9400003F0685
:100056005B4F766D7D077F6F1027E80364000A000B
:1000660001000010000110000100F894EE27ECBB1F
:10007600F1E0FBBFEBBFE5BF8DE0A2E0BB27ED9350
:100086008A95E9F780E098E0A0E6ED930197E9F715
:10009600EFE5EDBFE8E0EEBFC0E6D2E00C94280144
:1000A600E52DF0E0EA36A0E0FA0751F4ECB7EF3EB2
:1000B60028F4ECB7EF5EECBFECB727C0ECB725C071
:1000C600E936A0E0FA0751F4ECB7E13128F0ECB7D5
:1000D600E151ECBFECB719C0ECB717C0EC36A0E0A5
:1000E600FA0741F4E3B5EF3E20F4E3B5EF5EE3BD76
:1000F6000BC00AC0EB36A0E0FA0749F4E3B5E131DC
:1001060018F0E3B5E151E3BDE3B5F0E008950895D5
:100116000A921A92FA926A937A938A939A93AA9374
:10012600BA93EA93FA93EFB7EA935CB088249924DA
:10013600E52DF0E0EA37A0E0FA0721F4E0E0ECBFB5
:10014600E3BD4CC0EA36A0E0FA0719F4A9DFECBF1C
:1001560045C0E936A0E0FA0719F4A2DFECBF3EC0BD
:10016600EB36A0E0FA0719F49BDFE3BD37C0EC36A7
:10017600A0E0FA0719F494DFE3BD30C0E136A0E051
:10018600FA0751F1E236A0E0FA0711F4E3E025C0E0
:10019600E336A0E0FA0711F4ECE01FC0E436A0E075
:1001A600FA0711F4E3E019C0E536A0E0FA0719F4FE
:1001B600E3E069D013C0E636A0E0FA0719F4ECE0F4
:1001C60062D00CC0E736A0E0FA0711F4EFE005C0F4
:1001D600E836A0E0FA0711F4E0E0EBBBE991EFBFE7
:1001E600F991E991B991A991999189917991699139
:1001F600F9901990099018950A92AA93EA93FA939E
:10020600EFB7EA93E1E0F0E0E815F905B9F0E52D7E
:10021600F0E0E736A0E0FA0719F4F301319606C0DC
:10022600E836A0E0FA0751F4F30131973F01EC5AA2
:10023600FF4F049005BAE1E0F0E04F01E991EFBF0E
:10024600F991E991A99109901895E8EDEAB9E6E8DE
:10025600E0BDE7E4E9B9E8E0E7BBE0E8E1BBEFEFE2
:10026600EABBE4BBE4E5F0E0049005BAEDE6E3BFE3
:10027600EFE6E5BDE0E4EBBFE3E0E5BFE0E4EABFBF
:100286007894FFCFFFCFEBBBEAEAE3BDECBF08955E
:00000001FF
