:100000000C9433000C94C0000C9400000C9400007D
:100010000C9400000C9400000C9400000C94000060
:100020000C9400000C9400000C9400000C94000050
:100030000C9400000C9400000C9400000C94000040
:100040000C9400000C9400000C9400000C94000030
:100050000C9400001027E80364000A00010000105F
:10006000000110000100F894EE27ECBBF1E0FBBFAB
:10007000EBBFE5BF8DE0A2E0BB27ED938A95E9F7E2
:1000800080E098E0A0E6ED930197E9F7EFE5EDBF9A
:10009000E8E0EEBFC0E6D2E00C94F100E52DF0E020
:1000A000EA36A0E0FA0741F4ECB7EF3E20F4ECB7F3
:1000B000EF5EECBF0BC00AC0E936A0E0FA0749F4D6
:1000C000ECB7E13118F0ECB7E151ECBFECB7F0E080
:1000D000089508955F9BFECF5CB066247724E52DDC
:1000E000F0E0EA37A0E0FA0721F4E0E0ECBFE3BD7E
:1000F00039C0EA36A0E0FA0721F4D0DFE3BDECBF57
:1001000031C0E936A0E0FA0721F4C8DFE3BDECBF57
:1001100029C0E536A0E0FA0741F4D99AD89ADB98CD
:10012000DA98EAEAE3BDECBF1DC0E636A0E0FA07C4
:1001300041F4D998D898DB9ADA9AEAEAE3BDECBFA1
:1001400011C0E736A0E0FA0729F4DB9ADA9AD99AC7
:10015000D89A08C0E836A0E0FA0721F4DB98DA98CC
:10016000D998D8980895CC9B02C0AF9A01C0AF9897
:100170000895AA935D9BFECFE881ECB9219608957E
:100180000A921A92FA926A937A938A939A93AA930A
:10019000BA93EA93FA93EFB7EA93E1E0F0E0E61559
:1001A000F70589F0E52DF0E0E736A0E0FA0711F455
:1001B000A1E405C0E836A0E0FA0729F4A2E4D9DFFB
:1001C000E1E0F0E03F01E991EFBFF991E991B991E8
:1001D000A9919991899179916991F99019900990D2
:1001E0001895E8E1EAB9E6E8E0BDE7E4E9B9EFEF40
:1001F000E7BBE2E8E1BBEFE0EABBEFEFE4BBE0E046
:10020000E5BBEDE6E3BFEFE6E5BDE0E4EBBFE3E031
:10021000E5BFE0E4EABF78945DDFA5DFFDCFFFCF67
:00000001FF
